{
  "contractName": "DeSocial",
  "abi": [
    {
      "anonymous": false,
      "inputs": [
        {
          "indexed": true,
          "internalType": "address",
          "name": "user",
          "type": "address"
        },
        {
          "indexed": false,
          "internalType": "uint256",
          "name": "balance",
          "type": "uint256"
        },
        {
          "indexed": false,
          "internalType": "int256",
          "name": "tau",
          "type": "int256"
        }
      ],
      "name": "DebugLog",
      "type": "event"
    },
    {
      "anonymous": false,
      "inputs": [
        {
          "indexed": true,
          "internalType": "address",
          "name": "requester",
          "type": "address"
        },
        {
          "indexed": true,
          "internalType": "address",
          "name": "target",
          "type": "address"
        },
        {
          "indexed": false,
          "internalType": "int256",
          "name": "inter_terminal",
          "type": "int256"
        }
      ],
      "name": "Request",
      "type": "event"
    },
    {
      "anonymous": false,
      "inputs": [
        {
          "indexed": true,
          "internalType": "address",
          "name": "requester",
          "type": "address"
        },
        {
          "indexed": false,
          "internalType": "int256",
          "name": "inter_terminal",
          "type": "int256"
        }
      ],
      "name": "Retrieve",
      "type": "event"
    },
    {
      "anonymous": false,
      "inputs": [
        {
          "indexed": true,
          "internalType": "address",
          "name": "voter",
          "type": "address"
        },
        {
          "indexed": false,
          "internalType": "bool",
          "name": "agree",
          "type": "bool"
        }
      ],
      "name": "vote_casted",
      "type": "event"
    },
    {
      "inputs": [],
      "name": "FINAL_RESULT",
      "outputs": [
        {
          "internalType": "bool",
          "name": "",
          "type": "bool"
        }
      ],
      "stateMutability": "view",
      "type": "function"
    },
    {
      "inputs": [],
      "name": "agree_count",
      "outputs": [
        {
          "internalType": "uint256",
          "name": "",
          "type": "uint256"
        }
      ],
      "stateMutability": "view",
      "type": "function"
    },
    {
      "inputs": [],
      "name": "disagree_count",
      "outputs": [
        {
          "internalType": "uint256",
          "name": "",
          "type": "uint256"
        }
      ],
      "stateMutability": "view",
      "type": "function"
    },
    {
      "inputs": [],
      "name": "intermediate_terminal",
      "outputs": [
        {
          "internalType": "int256",
          "name": "",
          "type": "int256"
        }
      ],
      "stateMutability": "view",
      "type": "function"
    },
    {
      "inputs": [
        {
          "internalType": "address",
          "name": "",
          "type": "address"
        }
      ],
      "name": "unique",
      "outputs": [
        {
          "internalType": "bool",
          "name": "",
          "type": "bool"
        }
      ],
      "stateMutability": "view",
      "type": "function"
    },
    {
      "inputs": [
        {
          "internalType": "uint256",
          "name": "",
          "type": "uint256"
        }
      ],
      "name": "val_list",
      "outputs": [
        {
          "internalType": "int256",
          "name": "",
          "type": "int256"
        }
      ],
      "stateMutability": "view",
      "type": "function"
    },
    {
      "inputs": [
        {
          "internalType": "int256",
          "name": "upload_num",
          "type": "int256"
        }
      ],
      "name": "set_inter_terminal",
      "outputs": [],
      "stateMutability": "nonpayable",
      "type": "function"
    },
    {
      "inputs": [
        {
          "internalType": "int256[]",
          "name": "upload_list",
          "type": "int256[]"
        }
      ],
      "name": "set_val_list",
      "outputs": [],
      "stateMutability": "nonpayable",
      "type": "function"
    },
    {
      "inputs": [],
      "name": "get_val_list",
      "outputs": [
        {
          "internalType": "int256[]",
          "name": "",
          "type": "int256[]"
        }
      ],
      "stateMutability": "view",
      "type": "function"
    },
    {
      "inputs": [
        {
          "internalType": "bool",
          "name": "result",
          "type": "bool"
        }
      ],
      "name": "set_FINAL_RESULT",
      "outputs": [],
      "stateMutability": "nonpayable",
      "type": "function"
    },
    {
      "inputs": [],
      "name": "get_FINAL_RESULT",
      "outputs": [
        {
          "internalType": "bool",
          "name": "",
          "type": "bool"
        }
      ],
      "stateMutability": "view",
      "type": "function"
    },
    {
      "inputs": [
        {
          "internalType": "address",
          "name": "voter",
          "type": "address"
        },
        {
          "internalType": "bool",
          "name": "agree",
          "type": "bool"
        }
      ],
      "name": "vote",
      "outputs": [],
      "stateMutability": "payable",
      "type": "function"
    },
    {
      "inputs": [],
      "name": "finalize",
      "outputs": [
        {
          "internalType": "bool",
          "name": "",
          "type": "bool"
        }
      ],
      "stateMutability": "nonpayable",
      "type": "function"
    },
    {
      "inputs": [
        {
          "internalType": "int256",
          "name": "val_tot",
          "type": "int256"
        },
        {
          "internalType": "int256",
          "name": "val_num",
          "type": "int256"
        }
      ],
      "name": "select_validators",
      "outputs": [
        {
          "internalType": "int256[]",
          "name": "",
          "type": "int256[]"
        }
      ],
      "stateMutability": "nonpayable",
      "type": "function"
    },
    {
      "inputs": [
        {
          "internalType": "address",
          "name": "target",
          "type": "address"
        },
        {
          "internalType": "int256",
          "name": "inter_terminal",
          "type": "int256"
        }
      ],
      "name": "request",
      "outputs": [],
      "stateMutability": "payable",
      "type": "function"
    },
    {
      "inputs": [
        {
          "internalType": "int256",
          "name": "inter_terminal",
          "type": "int256"
        }
      ],
      "name": "retrieve",
      "outputs": [],
      "stateMutability": "view",
      "type": "function"
    }
  ],
  "bytecode": "0x608060405234801561000f575f80fd5b506111248061001d5f395ff3fe6080604052600436106100f1575f3560e01c806398df5d8a11610089578063da2c1c3011610058578063da2c1c30146102e9578063e806190114610325578063e8c835b714610361578063f19125ea1461037d576100f1565b806398df5d8a146102535780639ba7146c1461027b578063bd041c4d146102a5578063c9285483146102c1576100f1565b80634f18353c116100c55780634f18353c146101ad57806359a753eb146101d55780637b43f4bc146101ff5780637f89e55914610229576100f1565b8062f0e40f146100f557806303ae66d61461011f5780632e50d4b51461015b5780634bb278f314610183575b5f80fd5b348015610100575f80fd5b506101096103a7565b6040516101169190610953565b60405180910390f35b34801561012a575f80fd5b50610145600480360381019061014091906109de565b6103fd565b6040516101529190610a23565b60405180910390f35b348015610166575f80fd5b50610181600480360381019061017c9190610a66565b61041a565b005b34801561018e575f80fd5b50610197610436565b6040516101a49190610a23565b60405180910390f35b3480156101b8575f80fd5b506101d360048036038101906101ce9190610abb565b61045d565b005b3480156101e0575f80fd5b506101e96104a4565b6040516101f69190610a23565b60405180910390f35b34801561020a575f80fd5b506102136104b6565b6040516102209190610afe565b60405180910390f35b348015610234575f80fd5b5061023d6104bb565b60405161024a9190610afe565b60405180910390f35b34801561025e575f80fd5b5061027960048036038101906102749190610c67565b6104c1565b005b348015610286575f80fd5b5061028f6104db565b60405161029c9190610a23565b60405180910390f35b6102bf60048036038101906102ba9190610cae565b6104f0565b005b3480156102cc575f80fd5b506102e760048036038101906102e29190610abb565b61057b565b005b3480156102f4575f80fd5b5061030f600480360381019061030a9190610d16565b610585565b60405161031c9190610d50565b60405180910390f35b348015610330575f80fd5b5061034b60048036038101906103469190610d69565b6105a5565b6040516103589190610953565b60405180910390f35b61037b60048036038101906103769190610da7565b6107b5565b005b348015610388575f80fd5b50610391610827565b60405161039e9190610d50565b60405180910390f35b606060048054806020026020016040519081016040528092919081815260200182805480156103f357602002820191905f5260205f20905b8154815260200190600101908083116103df575b5050505050905090565b6005602052805f5260405f205f915054906101000a900460ff1681565b8060025f6101000a81548160ff02191690831515021790555050565b5f806001545f541190505f80819055505f6001819055506104568161041a565b8091505090565b60035481146104a1576040517f08c379a000000000000000000000000000000000000000000000000000000000815260040161049890610e3f565b60405180910390fd5b50565b60025f9054906101000a900460ff1681565b5f5481565b60015481565b80600490805190602001906104d792919061082d565b5050565b5f60025f9054906101000a900460ff16905090565b8015610511575f8081548092919061050790610e8a565b9190505550610529565b60015f81548092919061052390610e8a565b91905055505b8173ffffffffffffffffffffffffffffffffffffffff167fd2c427fae7c221ff2cda476d038fe187307f0391e169dc45312fb51e30879b638260405161056f9190610a23565b60405180910390a25050565b8060038190555050565b60048181548110610594575f80fd5b905f5260205f20015f915090505481565b60605f831380156105b557505f82135b6105f4576040517f08c379a00000000000000000000000000000000000000000000000000000000081526004016105eb90610f1b565b60405180910390fd5b82821315610637576040517f08c379a000000000000000000000000000000000000000000000000000000000815260040161062e90610f83565b60405180910390fd5b5f8267ffffffffffffffff81111561065257610651610b2b565b5b6040519080825280602002602001820160405280156106805781602001602082028036833780820191505090505b5090505f8467ffffffffffffffff81111561069e5761069d610b2b565b5b6040519080825280602002602001820160405280156106cc5781602001602082028036833780820191505090505b5090505f5b84811015610793575f8642444333866040516020016106f4959493929190611006565b604051602081830303815290604052805190602001205f1c6107169190611091565b905082818151811061072b5761072a6110c1565b5b602002602001015161078d578084838151811061074b5761074a6110c1565b5b602002602001018181525050600183828151811061076c5761076b6110c1565b5b602002602001019015159081151581525050818061078990610e8a565b9250505b506106d1565b5f80819055505f6001819055506107a9836104c1565b82935050505092915050565b6107be8161057b565b8173ffffffffffffffffffffffffffffffffffffffff163373ffffffffffffffffffffffffffffffffffffffff167f036570b7874032385c46aec153f0284bdde62ec18351cb056c606cd9f7eb0f2d8360405161081b9190610d50565b60405180910390a35050565b60035481565b828054828255905f5260205f20908101928215610867579160200282015b8281111561086657825182559160200191906001019061084b565b5b5090506108749190610878565b5090565b5b8082111561088f575f815f905550600101610879565b5090565b5f81519050919050565b5f82825260208201905092915050565b5f819050602082019050919050565b5f819050919050565b6108ce816108bc565b82525050565b5f6108df83836108c5565b60208301905092915050565b5f602082019050919050565b5f61090182610893565b61090b818561089d565b9350610916836108ad565b805f5b8381101561094657815161092d88826108d4565b9750610938836108eb565b925050600181019050610919565b5085935050505092915050565b5f6020820190508181035f83015261096b81846108f7565b905092915050565b5f604051905090565b5f80fd5b5f80fd5b5f73ffffffffffffffffffffffffffffffffffffffff82169050919050565b5f6109ad82610984565b9050919050565b6109bd816109a3565b81146109c7575f80fd5b50565b5f813590506109d8816109b4565b92915050565b5f602082840312156109f3576109f261097c565b5b5f610a00848285016109ca565b91505092915050565b5f8115159050919050565b610a1d81610a09565b82525050565b5f602082019050610a365f830184610a14565b92915050565b610a4581610a09565b8114610a4f575f80fd5b50565b5f81359050610a6081610a3c565b92915050565b5f60208284031215610a7b57610a7a61097c565b5b5f610a8884828501610a52565b91505092915050565b610a9a816108bc565b8114610aa4575f80fd5b50565b5f81359050610ab581610a91565b92915050565b5f60208284031215610ad057610acf61097c565b5b5f610add84828501610aa7565b91505092915050565b5f819050919050565b610af881610ae6565b82525050565b5f602082019050610b115f830184610aef565b92915050565b5f80fd5b5f601f19601f8301169050919050565b7f4e487b71000000000000000000000000000000000000000000000000000000005f52604160045260245ffd5b610b6182610b1b565b810181811067ffffffffffffffff82111715610b8057610b7f610b2b565b5b80604052505050565b5f610b92610973565b9050610b9e8282610b58565b919050565b5f67ffffffffffffffff821115610bbd57610bbc610b2b565b5b602082029050602081019050919050565b5f80fd5b5f610be4610bdf84610ba3565b610b89565b90508083825260208201905060208402830185811115610c0757610c06610bce565b5b835b81811015610c305780610c1c8882610aa7565b845260208401935050602081019050610c09565b5050509392505050565b5f82601f830112610c4e57610c4d610b17565b5b8135610c5e848260208601610bd2565b91505092915050565b5f60208284031215610c7c57610c7b61097c565b5b5f82013567ffffffffffffffff811115610c9957610c98610980565b5b610ca584828501610c3a565b91505092915050565b5f8060408385031215610cc457610cc361097c565b5b5f610cd1858286016109ca565b9250506020610ce285828601610a52565b9150509250929050565b610cf581610ae6565b8114610cff575f80fd5b50565b5f81359050610d1081610cec565b92915050565b5f60208284031215610d2b57610d2a61097c565b5b5f610d3884828501610d02565b91505092915050565b610d4a816108bc565b82525050565b5f602082019050610d635f830184610d41565b92915050565b5f8060408385031215610d7f57610d7e61097c565b5b5f610d8c85828601610aa7565b9250506020610d9d85828601610aa7565b9150509250929050565b5f8060408385031215610dbd57610dbc61097c565b5b5f610dca858286016109ca565b9250506020610ddb85828601610aa7565b9150509250929050565b5f82825260208201905092915050565b7f496e76616c696420696e7465726d656469617465207465726d696e616c0000005f82015250565b5f610e29601d83610de5565b9150610e3482610df5565b602082019050919050565b5f6020820190508181035f830152610e5681610e1d565b9050919050565b7f4e487b71000000000000000000000000000000000000000000000000000000005f52601160045260245ffd5b5f610e9482610ae6565b91507fffffffffffffffffffffffffffffffffffffffffffffffffffffffffffffffff8203610ec657610ec5610e5d565b5b600182019050919050565b7f696e76616c696420696e707574000000000000000000000000000000000000005f82015250565b5f610f05600d83610de5565b9150610f1082610ed1565b602082019050919050565b5f6020820190508181035f830152610f3281610ef9565b9050919050565b7f63616e6e6f742073656c656374206d6f7265207468616e20746f74616c0000005f82015250565b5f610f6d601d83610de5565b9150610f7882610f39565b602082019050919050565b5f6020820190508181035f830152610f9a81610f61565b9050919050565b5f819050919050565b610fbb610fb682610ae6565b610fa1565b82525050565b5f8160601b9050919050565b5f610fd782610fc1565b9050919050565b5f610fe882610fcd565b9050919050565b611000610ffb826109a3565b610fde565b82525050565b5f6110118288610faa565b6020820191506110218287610faa565b6020820191506110318286610faa565b6020820191506110418285610fef565b6014820191506110518284610faa565b6020820191508190509695505050505050565b7f4e487b71000000000000000000000000000000000000000000000000000000005f52601260045260245ffd5b5f61109b82610ae6565b91506110a683610ae6565b9250826110b6576110b5611064565b5b828206905092915050565b7f4e487b71000000000000000000000000000000000000000000000000000000005f52603260045260245ffdfea26469706673582212206dacbeea8b1137c1abc1f8174bc5e94712dc9d296e9e16fa0f7b043f9bb090a964736f6c63430008150033",
  "immutableReferences": {},
  "source": "// SPDX-License-Identifier: MIT\npragma solidity ^0.8.0;\n\ncontract DeSocial {\n\n    uint256 public agree_count;\n    uint256 public disagree_count;\n    bool public FINAL_RESULT;\n    int256 public intermediate_terminal;\n\n    int256[] public val_list;\n\n    mapping(address => bool) public unique;\n\n    event DebugLog(address indexed user, uint256 balance, int256 tau);\n    event vote_casted(address indexed voter, bool agree);\n\n    event Request(address indexed requester, address indexed target, int256 inter_terminal);\n    event Retrieve(address indexed requester, int256 inter_terminal);\n\n    function set_inter_terminal(int256 upload_num) public {\n        intermediate_terminal = upload_num;\n    }\n\n    function set_val_list(int256[] memory upload_list) public {\n        val_list = upload_list;\n    }\n\n    function get_val_list() public view returns (int256[] memory) {\n        return val_list;\n    }\n\n    function set_FINAL_RESULT(bool result) public {\n        FINAL_RESULT = result;\n    }\n\n    function get_FINAL_RESULT() public view returns (bool){\n        return FINAL_RESULT;\n    }\n\n    function vote(address voter, bool agree) public payable {\n        if (agree) {\n            agree_count++;\n        } else {\n            disagree_count++;\n        }\n        emit vote_casted(voter, agree);\n    }\n\n    function finalize() public returns (bool) {\n        bool result = agree_count > disagree_count;\n        agree_count = 0;\n        disagree_count = 0;\n        set_FINAL_RESULT(result);\n        return result;\n    }\n\n    function select_validators(int256 val_tot, int256 val_num) public returns (int256[] memory) {\n        // generate a list of validators based on the total number of validators and the number of validators to select\n        // by generating val_num random numbers between 0 and val_tot-1, without replacement\n        require(val_tot > 0 && val_num > 0, \"invalid input\");\n        require(val_num <= val_tot, \"cannot select more than total\");\n\n        int256[] memory selected = new int256[](uint256(val_num));\n        bool[] memory used = new bool[](uint256(val_tot));\n        uint256 count = 0;\n\n        while (count < uint256(val_num)) {\n            int256 rand = int256(uint256(keccak256(abi.encodePacked(block.timestamp, block.prevrandao, block.number, msg.sender, count))) % uint256(val_tot));\n            if (!used[uint256(rand)]) {\n                selected[count] = rand;\n                used[uint256(rand)] = true;\n                count++;\n            }\n        }\n\n        agree_count = 0;\n        disagree_count = 0;\n        set_val_list(selected);\n        return selected;\n    }\n\n    function request(address target, int256 inter_terminal) public payable {\n        // Emit an event to notify that a request has been made\n        set_inter_terminal(inter_terminal);\n        emit Request(msg.sender, target, inter_terminal);\n    }\n\n    function retrieve(int256 inter_terminal) public view {\n        // the smart contract is supposed to check whether the intermediate terminal is correct\n        require(inter_terminal == intermediate_terminal, \"Invalid intermediate terminal\");\n        // Emit an event to notify the retrieval of the intermediate terminal\n        // and the address of the requester\n        //emit Retrieve(msg.sender, inter_terminal);\n    }\n\n}\n",
  "sourcePath": "/common/home/jh2164/BC/DeSocial/contract/contracts/contract.sol",
  "compiler": {
    "name": "solc",
    "version": "0.8.21+commit.d9974bed.Emscripten.clang"
  },
  "schemaVersion": "3.4.16",
  "updatedAt": "2025-05-21T03:30:36.796Z",
  "devdoc": {
    "kind": "dev",
    "methods": {},
    "version": 1
  },
  "userdoc": {
    "kind": "user",
    "methods": {},
    "version": 1
  }
}