{
  "contractName": "Web3SN",
  "abi": [
    {
      "anonymous": false,
      "inputs": [
        {
          "indexed": true,
          "internalType": "address",
          "name": "user",
          "type": "address"
        },
        {
          "indexed": false,
          "internalType": "uint256",
          "name": "balance",
          "type": "uint256"
        },
        {
          "indexed": false,
          "internalType": "int256",
          "name": "tau",
          "type": "int256"
        }
      ],
      "name": "DebugLog",
      "type": "event"
    },
    {
      "anonymous": false,
      "inputs": [
        {
          "indexed": true,
          "internalType": "address",
          "name": "promoter",
          "type": "address"
        },
        {
          "indexed": true,
          "internalType": "address",
          "name": "target",
          "type": "address"
        },
        {
          "indexed": false,
          "internalType": "uint256",
          "name": "fee",
          "type": "uint256"
        }
      ],
      "name": "Promote",
      "type": "event"
    },
    {
      "anonymous": false,
      "inputs": [
        {
          "indexed": true,
          "internalType": "address",
          "name": "subscriber",
          "type": "address"
        },
        {
          "indexed": true,
          "internalType": "address",
          "name": "target",
          "type": "address"
        },
        {
          "indexed": false,
          "internalType": "uint256",
          "name": "fee",
          "type": "uint256"
        }
      ],
      "name": "Subscribe",
      "type": "event"
    },
    {
      "anonymous": false,
      "inputs": [
        {
          "indexed": true,
          "internalType": "address",
          "name": "initiator",
          "type": "address"
        },
        {
          "indexed": false,
          "internalType": "address",
          "name": "target",
          "type": "address"
        },
        {
          "indexed": false,
          "internalType": "string",
          "name": "val_type",
          "type": "string"
        }
      ],
      "name": "validation_started",
      "type": "event"
    },
    {
      "anonymous": false,
      "inputs": [
        {
          "indexed": true,
          "internalType": "address",
          "name": "voter",
          "type": "address"
        },
        {
          "indexed": false,
          "internalType": "bool",
          "name": "agree",
          "type": "bool"
        }
      ],
      "name": "vote_casted",
      "type": "event"
    },
    {
      "inputs": [],
      "name": "FINAL_RESULT",
      "outputs": [
        {
          "internalType": "bool",
          "name": "",
          "type": "bool"
        }
      ],
      "stateMutability": "view",
      "type": "function"
    },
    {
      "inputs": [],
      "name": "agree_count",
      "outputs": [
        {
          "internalType": "uint256",
          "name": "",
          "type": "uint256"
        }
      ],
      "stateMutability": "view",
      "type": "function"
    },
    {
      "inputs": [
        {
          "internalType": "uint256",
          "name": "",
          "type": "uint256"
        }
      ],
      "name": "both_vis_list",
      "outputs": [
        {
          "internalType": "address",
          "name": "",
          "type": "address"
        }
      ],
      "stateMutability": "view",
      "type": "function"
    },
    {
      "inputs": [],
      "name": "disagree_count",
      "outputs": [
        {
          "internalType": "uint256",
          "name": "",
          "type": "uint256"
        }
      ],
      "stateMutability": "view",
      "type": "function"
    },
    {
      "inputs": [
        {
          "internalType": "uint256",
          "name": "",
          "type": "uint256"
        }
      ],
      "name": "initiator_only_vis_list",
      "outputs": [
        {
          "internalType": "address",
          "name": "",
          "type": "address"
        }
      ],
      "stateMutability": "view",
      "type": "function"
    },
    {
      "inputs": [
        {
          "internalType": "uint256",
          "name": "",
          "type": "uint256"
        }
      ],
      "name": "none_repu_vis_list",
      "outputs": [
        {
          "internalType": "address",
          "name": "",
          "type": "address"
        }
      ],
      "stateMutability": "view",
      "type": "function"
    },
    {
      "inputs": [
        {
          "internalType": "uint256",
          "name": "",
          "type": "uint256"
        }
      ],
      "name": "target_only_vis_list",
      "outputs": [
        {
          "internalType": "address",
          "name": "",
          "type": "address"
        }
      ],
      "stateMutability": "view",
      "type": "function"
    },
    {
      "inputs": [
        {
          "internalType": "address",
          "name": "",
          "type": "address"
        }
      ],
      "name": "unique",
      "outputs": [
        {
          "internalType": "bool",
          "name": "",
          "type": "bool"
        }
      ],
      "stateMutability": "view",
      "type": "function"
    },
    {
      "inputs": [
        {
          "internalType": "uint256",
          "name": "",
          "type": "uint256"
        }
      ],
      "name": "val_list_offchain",
      "outputs": [
        {
          "internalType": "address",
          "name": "",
          "type": "address"
        }
      ],
      "stateMutability": "view",
      "type": "function"
    },
    {
      "inputs": [
        {
          "internalType": "uint256",
          "name": "",
          "type": "uint256"
        }
      ],
      "name": "voting_list",
      "outputs": [
        {
          "internalType": "address",
          "name": "voter",
          "type": "address"
        },
        {
          "internalType": "bool",
          "name": "agree",
          "type": "bool"
        }
      ],
      "stateMutability": "view",
      "type": "function"
    },
    {
      "inputs": [],
      "name": "get_vis_initiator_only",
      "outputs": [
        {
          "internalType": "address[]",
          "name": "",
          "type": "address[]"
        }
      ],
      "stateMutability": "view",
      "type": "function"
    },
    {
      "inputs": [],
      "name": "get_vis_target_only",
      "outputs": [
        {
          "internalType": "address[]",
          "name": "",
          "type": "address[]"
        }
      ],
      "stateMutability": "view",
      "type": "function"
    },
    {
      "inputs": [],
      "name": "get_vis_both",
      "outputs": [
        {
          "internalType": "address[]",
          "name": "",
          "type": "address[]"
        }
      ],
      "stateMutability": "view",
      "type": "function"
    },
    {
      "inputs": [],
      "name": "get_vis_none_repu",
      "outputs": [
        {
          "internalType": "address[]",
          "name": "",
          "type": "address[]"
        }
      ],
      "stateMutability": "view",
      "type": "function"
    },
    {
      "inputs": [],
      "name": "get_val_list",
      "outputs": [
        {
          "internalType": "address[]",
          "name": "",
          "type": "address[]"
        }
      ],
      "stateMutability": "view",
      "type": "function"
    },
    {
      "inputs": [],
      "name": "get_FINAL_RESULT",
      "outputs": [
        {
          "internalType": "bool",
          "name": "",
          "type": "bool"
        }
      ],
      "stateMutability": "view",
      "type": "function"
    },
    {
      "inputs": [
        {
          "internalType": "address[]",
          "name": "upload_list",
          "type": "address[]"
        }
      ],
      "name": "set_vis_initiator_only",
      "outputs": [],
      "stateMutability": "nonpayable",
      "type": "function"
    },
    {
      "inputs": [
        {
          "internalType": "address[]",
          "name": "upload_list",
          "type": "address[]"
        }
      ],
      "name": "set_vis_target_only",
      "outputs": [],
      "stateMutability": "nonpayable",
      "type": "function"
    },
    {
      "inputs": [
        {
          "internalType": "address[]",
          "name": "upload_list",
          "type": "address[]"
        }
      ],
      "name": "set_vis_both",
      "outputs": [],
      "stateMutability": "nonpayable",
      "type": "function"
    },
    {
      "inputs": [
        {
          "internalType": "address[]",
          "name": "upload_list",
          "type": "address[]"
        }
      ],
      "name": "set_vis_none_repu",
      "outputs": [],
      "stateMutability": "nonpayable",
      "type": "function"
    },
    {
      "inputs": [
        {
          "internalType": "address[]",
          "name": "val_list",
          "type": "address[]"
        }
      ],
      "name": "set_val_list",
      "outputs": [],
      "stateMutability": "nonpayable",
      "type": "function"
    },
    {
      "inputs": [
        {
          "internalType": "bool",
          "name": "result",
          "type": "bool"
        }
      ],
      "name": "set_FINAL_RESULT",
      "outputs": [],
      "stateMutability": "nonpayable",
      "type": "function"
    },
    {
      "inputs": [
        {
          "internalType": "int256",
          "name": "tau",
          "type": "int256"
        },
        {
          "internalType": "uint256",
          "name": "limit_len",
          "type": "uint256"
        }
      ],
      "name": "verification",
      "outputs": [
        {
          "internalType": "address[]",
          "name": "",
          "type": "address[]"
        }
      ],
      "stateMutability": "nonpayable",
      "type": "function"
    },
    {
      "inputs": [
        {
          "internalType": "address",
          "name": "voter",
          "type": "address"
        },
        {
          "internalType": "bool",
          "name": "agree",
          "type": "bool"
        }
      ],
      "name": "vote",
      "outputs": [],
      "stateMutability": "payable",
      "type": "function"
    },
    {
      "inputs": [],
      "name": "finalize",
      "outputs": [
        {
          "internalType": "bool",
          "name": "",
          "type": "bool"
        }
      ],
      "stateMutability": "nonpayable",
      "type": "function"
    },
    {
      "inputs": [
        {
          "internalType": "address",
          "name": "target",
          "type": "address"
        },
        {
          "internalType": "uint256",
          "name": "promotion_fee",
          "type": "uint256"
        }
      ],
      "name": "promote",
      "outputs": [],
      "stateMutability": "payable",
      "type": "function"
    },
    {
      "inputs": [
        {
          "internalType": "address",
          "name": "target",
          "type": "address"
        },
        {
          "internalType": "uint256",
          "name": "subscription_fee",
          "type": "uint256"
        }
      ],
      "name": "subscribe",
      "outputs": [],
      "stateMutability": "payable",
      "type": "function"
    },
    {
      "inputs": [
        {
          "internalType": "address",
          "name": "initiator",
          "type": "address"
        },
        {
          "internalType": "address",
          "name": "target",
          "type": "address"
        },
        {
          "internalType": "string",
          "name": "val_type",
          "type": "string"
        },
        {
          "internalType": "int256",
          "name": "tau",
          "type": "int256"
        },
        {
          "internalType": "uint256",
          "name": "limit_len",
          "type": "uint256"
        }
      ],
      "name": "start_validation",
      "outputs": [
        {
          "internalType": "address[]",
          "name": "",
          "type": "address[]"
        }
      ],
      "stateMutability": "payable",
      "type": "function"
    }
  ],
  "bytecode": "0x608060405234801561000f575f80fd5b50611fc98061001d5f395ff3fe6080604052600436106101b5575f3560e01c80637f89e559116100eb578063a1dc822811610089578063c67fa1ea11610063578063c67fa1ea14610608578063e3461bed14610624578063f6671e681461064e578063f6968b2314610676576101b5565b8063a1dc822814610586578063b799c2bb146105b0578063bd041c4d146105ec576101b5565b8063920182c4116100c5578063920182c4146104e25780639ba7146c1461050c5780639e70f32a14610536578063a18d193c1461055e576101b5565b80637f89e5591461046057806382af75e91461048a5780638de69284146104c6576101b5565b80634bb278f3116101585780635c06e1c1116101325780635c06e1c1146103a25780636b7927b2146103d257806379d14c6f1461040e5780637b43f4bc14610436576101b5565b80634bb278f31461031257806359a753eb1461033c5780635ace824814610366576101b5565b80632e50d4b5116101945780632e50d4b51461025b578063323457bd14610283578063344bb9ba146102ab57806344513e09146102e8576101b5565b8062f0e40f146101b957806303ae66d6146101e35780630f4872351461021f575b5f80fd5b3480156101c4575f80fd5b506101cd6106b2565b6040516101da91906117db565b60405180910390f35b3480156101ee575f80fd5b5061020960048036038101906102049190611836565b61073d565b604051610216919061187b565b60405180910390f35b34801561022a575f80fd5b50610245600480360381019061024091906118c7565b61075a565b6040516102529190611901565b60405180910390f35b348015610266575f80fd5b50610281600480360381019061027c9190611944565b610795565b005b34801561028e575f80fd5b506102a960048036038101906102a49190611abf565b6107b1565b005b3480156102b6575f80fd5b506102d160048036038101906102cc91906118c7565b6107cb565b6040516102df929190611b06565b60405180910390f35b3480156102f3575f80fd5b506102fc610821565b60405161030991906117db565b60405180910390f35b34801561031d575f80fd5b506103266108ac565b604051610333919061187b565b60405180910390f35b348015610347575f80fd5b506103506109e4565b60405161035d919061187b565b60405180910390f35b348015610371575f80fd5b5061038c60048036038101906103879190611b60565b6109f6565b60405161039991906117db565b60405180910390f35b6103bc60048036038101906103b79190611c4e565b610ef2565b6040516103c991906117db565b60405180910390f35b3480156103dd575f80fd5b506103f860048036038101906103f391906118c7565b610f81565b6040516104059190611901565b60405180910390f35b348015610419575f80fd5b50610434600480360381019061042f9190611abf565b610fbc565b005b348015610441575f80fd5b5061044a610fd6565b6040516104579190611cf0565b60405180910390f35b34801561046b575f80fd5b50610474610fdb565b6040516104819190611cf0565b60405180910390f35b348015610495575f80fd5b506104b060048036038101906104ab91906118c7565b610fe1565b6040516104bd9190611901565b60405180910390f35b6104e060048036038101906104db9190611d09565b61101c565b005b3480156104ed575f80fd5b506104f6611123565b60405161050391906117db565b60405180910390f35b348015610517575f80fd5b506105206111ae565b60405161052d919061187b565b60405180910390f35b348015610541575f80fd5b5061055c60048036038101906105579190611abf565b6111c3565b005b348015610569575f80fd5b50610584600480360381019061057f9190611abf565b6111dd565b005b348015610591575f80fd5b5061059a6111f7565b6040516105a791906117db565b60405180910390f35b3480156105bb575f80fd5b506105d660048036038101906105d191906118c7565b611282565b6040516105e39190611901565b60405180910390f35b61060660048036038101906106019190611d47565b6112bd565b005b610622600480360381019061061d9190611d09565b6113fe565b005b34801561062f575f80fd5b50610638611505565b60405161064591906117db565b60405180910390f35b348015610659575f80fd5b50610674600480360381019061066f9190611abf565b611590565b005b348015610681575f80fd5b5061069c600480360381019061069791906118c7565b6115aa565b6040516106a99190611901565b60405180910390f35b6060600880548060200260200160405190810160405280929190818152602001828054801561073357602002820191905f5260205f20905b815f9054906101000a900473ffffffffffffffffffffffffffffffffffffffff1673ffffffffffffffffffffffffffffffffffffffff16815260200190600101908083116106ea575b5050505050905090565b6009602052805f5260405f205f915054906101000a900460ff1681565b60088181548110610769575f80fd5b905f5260205f20015f915054906101000a900473ffffffffffffffffffffffffffffffffffffffff1681565b8060025f6101000a81548160ff02191690831515021790555050565b80600590805190602001906107c79291906115e5565b5050565b600381815481106107da575f80fd5b905f5260205f20015f91509050805f015f9054906101000a900473ffffffffffffffffffffffffffffffffffffffff1690805f0160149054906101000a900460ff16905082565b606060048054806020026020016040519081016040528092919081815260200182805480156108a257602002820191905f5260205f20905b815f9054906101000a900473ffffffffffffffffffffffffffffffffffffffff1673ffffffffffffffffffffffffffffffffffffffff1681526020019060010190808311610859575b5050505050905090565b5f806001545f541190505f816108c4576001546108c7565b5f545b90505f81476108d69190611ddf565b90505f5b6003805490508110156109b7575f600382815481106108fc576108fb611e0f565b5b905f5260205f20015f015f9054906101000a900473ffffffffffffffffffffffffffffffffffffffff1690508415156003838154811061093f5761093e611e0f565b5b905f5260205f20015f0160149054906101000a900460ff161515036109a3578073ffffffffffffffffffffffffffffffffffffffff166108fc8490811502906040515f60405180830381858888f193505050501580156109a1573d5f803e3d5ffd5b505b5080806109af90611e3c565b9150506108da565b5060035f6109c5919061166c565b5f80819055505f6001819055506109db83610795565b82935050505090565b60025f9054906101000a900460ff1681565b60605f8267ffffffffffffffff811115610a1357610a12611983565b5b604051908082528060200260200182016040528015610a415781602001602082028036833780820191505090505b5090505f805b600680549050811015610b6a578560068281548110610a6957610a68611e0f565b5b905f5260205f20015f9054906101000a900473ffffffffffffffffffffffffffffffffffffffff1673ffffffffffffffffffffffffffffffffffffffff163110610b575760068181548110610ac157610ac0611e0f565b5b905f5260205f20015f9054906101000a900473ffffffffffffffffffffffffffffffffffffffff16838381518110610afc57610afb611e0f565b5b602002602001019073ffffffffffffffffffffffffffffffffffffffff16908173ffffffffffffffffffffffffffffffffffffffff16815250508180610b4190611e3c565b925050848203610b5657829350505050610eec565b5b8080610b6290611e3c565b915050610a47565b505f5b600580549050811015610c90578560058281548110610b8f57610b8e611e0f565b5b905f5260205f20015f9054906101000a900473ffffffffffffffffffffffffffffffffffffffff1673ffffffffffffffffffffffffffffffffffffffff163110610c7d5760058181548110610be757610be6611e0f565b5b905f5260205f20015f9054906101000a900473ffffffffffffffffffffffffffffffffffffffff16838381518110610c2257610c21611e0f565b5b602002602001019073ffffffffffffffffffffffffffffffffffffffff16908173ffffffffffffffffffffffffffffffffffffffff16815250508180610c6790611e3c565b925050848203610c7c57829350505050610eec565b5b8080610c8890611e3c565b915050610b6d565b505f5b600480549050811015610db6578560048281548110610cb557610cb4611e0f565b5b905f5260205f20015f9054906101000a900473ffffffffffffffffffffffffffffffffffffffff1673ffffffffffffffffffffffffffffffffffffffff163110610da35760048181548110610d0d57610d0c611e0f565b5b905f5260205f20015f9054906101000a900473ffffffffffffffffffffffffffffffffffffffff16838381518110610d4857610d47611e0f565b5b602002602001019073ffffffffffffffffffffffffffffffffffffffff16908173ffffffffffffffffffffffffffffffffffffffff16815250508180610d8d90611e3c565b925050848203610da257829350505050610eec565b5b8080610dae90611e3c565b915050610c93565b505f5b600780549050811015610edc578560078281548110610ddb57610dda611e0f565b5b905f5260205f20015f9054906101000a900473ffffffffffffffffffffffffffffffffffffffff1673ffffffffffffffffffffffffffffffffffffffff163110610ec95760078181548110610e3357610e32611e0f565b5b905f5260205f20015f9054906101000a900473ffffffffffffffffffffffffffffffffffffffff16838381518110610e6e57610e6d611e0f565b5b602002602001019073ffffffffffffffffffffffffffffffffffffffff16908173ffffffffffffffffffffffffffffffffffffffff16815250508180610eb390611e3c565b925050848203610ec857829350505050610eec565b5b8080610ed490611e3c565b915050610db9565b50610ee6826111c3565b81925050505b92915050565b606060035f610f01919061166c565b5f80819055505f6001819055505f610f1984846109f6565b9050610f24816111c3565b8673ffffffffffffffffffffffffffffffffffffffff167f40158025fc498639c8823578d4ac9c259b8504a1d12874533b3ee0cf6e95a9eb8787604051610f6c929190611efd565b60405180910390a28091505095945050505050565b60078181548110610f90575f80fd5b905f5260205f20015f915054906101000a900473ffffffffffffffffffffffffffffffffffffffff1681565b8060049080519060200190610fd29291906115e5565b5050565b5f5481565b60015481565b60068181548110610ff0575f80fd5b905f5260205f20015f915054906101000a900473ffffffffffffffffffffffffffffffffffffffff1681565b803373ffffffffffffffffffffffffffffffffffffffff16311015611076576040517f08c379a000000000000000000000000000000000000000000000000000000000815260040161106d90611f75565b60405180910390fd5b8173ffffffffffffffffffffffffffffffffffffffff166108fc8290811502906040515f60405180830381858888f193505050501580156110b9573d5f803e3d5ffd5b508173ffffffffffffffffffffffffffffffffffffffff163373ffffffffffffffffffffffffffffffffffffffff167f93837e03101facb2299be0f488056246fef5645f06dbcccdbbf9a667812afb2c836040516111179190611cf0565b60405180910390a35050565b606060058054806020026020016040519081016040528092919081815260200182805480156111a457602002820191905f5260205f20905b815f9054906101000a900473ffffffffffffffffffffffffffffffffffffffff1673ffffffffffffffffffffffffffffffffffffffff168152602001906001019080831161115b575b5050505050905090565b5f60025f9054906101000a900460ff16905090565b80600890805190602001906111d99291906115e5565b5050565b80600790805190602001906111f39291906115e5565b5050565b6060600780548060200260200160405190810160405280929190818152602001828054801561127857602002820191905f5260205f20905b815f9054906101000a900473ffffffffffffffffffffffffffffffffffffffff1673ffffffffffffffffffffffffffffffffffffffff168152602001906001019080831161122f575b5050505050905090565b60048181548110611291575f80fd5b905f5260205f20015f915054906101000a900473ffffffffffffffffffffffffffffffffffffffff1681565b80156112de575f808154809291906112d490611e3c565b91905055506112f6565b60015f8154809291906112f090611e3c565b91905055505b600360405180604001604052808473ffffffffffffffffffffffffffffffffffffffff168152602001831515815250908060018154018082558091505060019003905f5260205f20015f909190919091505f820151815f015f6101000a81548173ffffffffffffffffffffffffffffffffffffffff021916908373ffffffffffffffffffffffffffffffffffffffff1602179055506020820151815f0160146101000a81548160ff02191690831515021790555050508173ffffffffffffffffffffffffffffffffffffffff167fd2c427fae7c221ff2cda476d038fe187307f0391e169dc45312fb51e30879b63826040516113f2919061187b565b60405180910390a25050565b803373ffffffffffffffffffffffffffffffffffffffff16311015611458576040517f08c379a000000000000000000000000000000000000000000000000000000000815260040161144f90611f75565b60405180910390fd5b8173ffffffffffffffffffffffffffffffffffffffff166108fc8290811502906040515f60405180830381858888f1935050505015801561149b573d5f803e3d5ffd5b508173ffffffffffffffffffffffffffffffffffffffff163373ffffffffffffffffffffffffffffffffffffffff167f0860ddd15a1fc2fc77c3bedccebaf2f2a70ca2ed383fc4ee016ef207e3053cdd836040516114f99190611cf0565b60405180910390a35050565b6060600680548060200260200160405190810160405280929190818152602001828054801561158657602002820191905f5260205f20905b815f9054906101000a900473ffffffffffffffffffffffffffffffffffffffff1673ffffffffffffffffffffffffffffffffffffffff168152602001906001019080831161153d575b5050505050905090565b80600690805190602001906115a69291906115e5565b5050565b600581815481106115b9575f80fd5b905f5260205f20015f915054906101000a900473ffffffffffffffffffffffffffffffffffffffff1681565b828054828255905f5260205f2090810192821561165b579160200282015b8281111561165a578251825f6101000a81548173ffffffffffffffffffffffffffffffffffffffff021916908373ffffffffffffffffffffffffffffffffffffffff16021790555091602001919060010190611603565b5b509050611668919061168a565b5090565b5080545f8255905f5260205f209081019061168791906116a5565b50565b5b808211156116a1575f815f90555060010161168b565b5090565b5b808211156116f0575f8082015f6101000a81549073ffffffffffffffffffffffffffffffffffffffff02191690555f820160146101000a81549060ff0219169055506001016116a6565b5090565b5f81519050919050565b5f82825260208201905092915050565b5f819050602082019050919050565b5f73ffffffffffffffffffffffffffffffffffffffff82169050919050565b5f6117468261171d565b9050919050565b6117568161173c565b82525050565b5f611767838361174d565b60208301905092915050565b5f602082019050919050565b5f611789826116f4565b61179381856116fe565b935061179e8361170e565b805f5b838110156117ce5781516117b5888261175c565b97506117c083611773565b9250506001810190506117a1565b5085935050505092915050565b5f6020820190508181035f8301526117f3818461177f565b905092915050565b5f604051905090565b5f80fd5b5f80fd5b6118158161173c565b811461181f575f80fd5b50565b5f813590506118308161180c565b92915050565b5f6020828403121561184b5761184a611804565b5b5f61185884828501611822565b91505092915050565b5f8115159050919050565b61187581611861565b82525050565b5f60208201905061188e5f83018461186c565b92915050565b5f819050919050565b6118a681611894565b81146118b0575f80fd5b50565b5f813590506118c18161189d565b92915050565b5f602082840312156118dc576118db611804565b5b5f6118e9848285016118b3565b91505092915050565b6118fb8161173c565b82525050565b5f6020820190506119145f8301846118f2565b92915050565b61192381611861565b811461192d575f80fd5b50565b5f8135905061193e8161191a565b92915050565b5f6020828403121561195957611958611804565b5b5f61196684828501611930565b91505092915050565b5f80fd5b5f601f19601f8301169050919050565b7f4e487b71000000000000000000000000000000000000000000000000000000005f52604160045260245ffd5b6119b982611973565b810181811067ffffffffffffffff821117156119d8576119d7611983565b5b80604052505050565b5f6119ea6117fb565b90506119f682826119b0565b919050565b5f67ffffffffffffffff821115611a1557611a14611983565b5b602082029050602081019050919050565b5f80fd5b5f611a3c611a37846119fb565b6119e1565b90508083825260208201905060208402830185811115611a5f57611a5e611a26565b5b835b81811015611a885780611a748882611822565b845260208401935050602081019050611a61565b5050509392505050565b5f82601f830112611aa657611aa561196f565b5b8135611ab6848260208601611a2a565b91505092915050565b5f60208284031215611ad457611ad3611804565b5b5f82013567ffffffffffffffff811115611af157611af0611808565b5b611afd84828501611a92565b91505092915050565b5f604082019050611b195f8301856118f2565b611b26602083018461186c565b9392505050565b5f819050919050565b611b3f81611b2d565b8114611b49575f80fd5b50565b5f81359050611b5a81611b36565b92915050565b5f8060408385031215611b7657611b75611804565b5b5f611b8385828601611b4c565b9250506020611b94858286016118b3565b9150509250929050565b5f80fd5b5f67ffffffffffffffff821115611bbc57611bbb611983565b5b611bc582611973565b9050602081019050919050565b828183375f83830152505050565b5f611bf2611bed84611ba2565b6119e1565b905082815260208101848484011115611c0e57611c0d611b9e565b5b611c19848285611bd2565b509392505050565b5f82601f830112611c3557611c3461196f565b5b8135611c45848260208601611be0565b91505092915050565b5f805f805f60a08688031215611c6757611c66611804565b5b5f611c7488828901611822565b9550506020611c8588828901611822565b945050604086013567ffffffffffffffff811115611ca657611ca5611808565b5b611cb288828901611c21565b9350506060611cc388828901611b4c565b9250506080611cd4888289016118b3565b9150509295509295909350565b611cea81611894565b82525050565b5f602082019050611d035f830184611ce1565b92915050565b5f8060408385031215611d1f57611d1e611804565b5b5f611d2c85828601611822565b9250506020611d3d858286016118b3565b9150509250929050565b5f8060408385031215611d5d57611d5c611804565b5b5f611d6a85828601611822565b9250506020611d7b85828601611930565b9150509250929050565b7f4e487b71000000000000000000000000000000000000000000000000000000005f52601260045260245ffd5b7f4e487b71000000000000000000000000000000000000000000000000000000005f52601160045260245ffd5b5f611de982611894565b9150611df483611894565b925082611e0457611e03611d85565b5b828204905092915050565b7f4e487b71000000000000000000000000000000000000000000000000000000005f52603260045260245ffd5b5f611e4682611894565b91507fffffffffffffffffffffffffffffffffffffffffffffffffffffffffffffffff8203611e7857611e77611db2565b5b600182019050919050565b5f81519050919050565b5f82825260208201905092915050565b5f5b83811015611eba578082015181840152602081019050611e9f565b5f8484015250505050565b5f611ecf82611e83565b611ed98185611e8d565b9350611ee9818560208601611e9d565b611ef281611973565b840191505092915050565b5f604082019050611f105f8301856118f2565b8181036020830152611f228184611ec5565b90509392505050565b7f496e73756666696369656e742062616c616e63650000000000000000000000005f82015250565b5f611f5f601483611e8d565b9150611f6a82611f2b565b602082019050919050565b5f6020820190508181035f830152611f8c81611f53565b905091905056fea2646970667358221220d636367903d6c10931e8afc6e56b5740c6511a22c9afbb9c28d6b5e1601ba47e64736f6c63430008150033",
  "immutableReferences": {},
  "source": "// SPDX-License-Identifier: MIT\npragma solidity ^0.8.0;\n\ncontract Web3SN {\n    struct vote_str {\n        address voter;\n        bool agree;\n    }\n\n    uint256 public agree_count;\n    uint256 public disagree_count;\n    bool public FINAL_RESULT;\n    vote_str[] public voting_list;\n\n    address[] public initiator_only_vis_list;\n    address[] public target_only_vis_list;\n    address[] public both_vis_list;\n    address[] public none_repu_vis_list;\n    address[] public val_list_offchain;\n\n    mapping(address => bool) public unique;\n\n    event DebugLog(address indexed user, uint256 balance, int256 tau);\n    event vote_casted(address indexed voter, bool agree);\n    event validation_started(address indexed initiator, address target, string val_type);\n    event Promote(address indexed promoter, address indexed target, uint256 fee);\n    event Subscribe(address indexed subscriber, address indexed target, uint256 fee);\n\n    // on-off chain data transition\n    function get_vis_initiator_only() public view returns (address[] memory) {\n        return initiator_only_vis_list;\n    }\n\n    function get_vis_target_only() public view returns (address[] memory) {\n        return target_only_vis_list;\n    }\n\n    function get_vis_both() public view returns (address[] memory) {\n        return both_vis_list;\n    }\n\n    function get_vis_none_repu() public view returns (address[] memory) {\n        return none_repu_vis_list;\n    }\n\n    function get_val_list() public view returns (address[] memory){\n        return val_list_offchain;\n    }\n\n    function get_FINAL_RESULT() public view returns (bool){\n        return FINAL_RESULT;\n    }\n\n    function set_vis_initiator_only(address[] memory upload_list) public {\n        initiator_only_vis_list = upload_list;\n    }\n\n    function set_vis_target_only(address[] memory upload_list) public {\n        target_only_vis_list = upload_list;\n    }\n\n    function set_vis_both(address[] memory upload_list) public {\n        both_vis_list = upload_list;\n    }\n\n    function set_vis_none_repu(address[] memory upload_list) public {\n        none_repu_vis_list = upload_list;\n    }\n\n    function set_val_list(address[] memory val_list) public {\n        val_list_offchain = val_list;\n    }\n\n    function set_FINAL_RESULT(bool result) public {\n        FINAL_RESULT = result;\n    }\n\n    function verification(int256 tau, uint256 limit_len) public returns (address[] memory) {\n        address[] memory validators = new address[](limit_len);\n        uint256 count = 0;\n\n        for (uint256 i = 0; i < both_vis_list.length; i++) {\n            //emit DebugLog(vis_both[i], vis_both[i].balance, tau);\n            if (both_vis_list[i].balance >= uint256(tau)) {\n                validators[count] = both_vis_list[i];\n                count++;\n                if (count == limit_len){\n                    return validators;\n                }\n            }\n        }\n\n        for (uint256 i = 0; i < target_only_vis_list.length; i++) {\n            //emit DebugLog(vis_target[i], vis_target[i].balance, tau);\n            if (target_only_vis_list[i].balance >= uint256(tau)) {\n                validators[count] = target_only_vis_list[i];\n                count++;\n                if (count == limit_len){\n                    return validators;\n                }\n            }\n        }\n\n        for (uint256 i = 0; i < initiator_only_vis_list.length; i++) {\n            //emit DebugLog(vis_initiator[i], vis_initiator[i].balance, tau);\n            if (initiator_only_vis_list[i].balance >= uint256(tau)) {\n                validators[count] = initiator_only_vis_list[i];\n                count++;\n                if (count == limit_len){\n                    return validators;\n                }\n            }\n        }\n\n        for (uint256 i = 0; i < none_repu_vis_list.length; i++) {\n            //emit DebugLog(vis_none_repu[i], vis_none_repu[i].balance, tau);\n            if (none_repu_vis_list[i].balance >= uint256(tau)) {\n                validators[count] = none_repu_vis_list[i];\n                count++;\n                if (count == limit_len){\n                    return validators;\n                }\n            }\n        }\n        \n        set_val_list(validators);\n\n        return validators;\n    }\n    function vote(address voter, bool agree) public payable {\n        if (agree) {\n            agree_count++;\n        } else {\n            disagree_count++;\n        }\n        voting_list.push(vote_str({voter: voter, agree: agree}));\n        emit vote_casted(voter, agree);\n    }\n\n    function finalize() public returns (bool) {\n        bool result = agree_count > disagree_count;\n        uint256 winner_num = result ? agree_count : disagree_count;\n        \n        uint256 reward = address(this).balance / winner_num;\n\n        for (uint256 i = 0; i < voting_list.length; i++) {\n            address voter = voting_list[i].voter;\n            if (voting_list[i].agree == result) {\n                payable(voter).transfer(reward);\n            }\n        }\n        \n        delete voting_list;\n        agree_count = 0;\n        disagree_count = 0;\n        set_FINAL_RESULT(result);\n\n        return result;\n    }\n\n    function promote(address target, uint256 promotion_fee) public payable {\n        require(address(msg.sender).balance >= uint256(promotion_fee), \"Insufficient balance\");\n\n        payable(target).transfer(promotion_fee);\n        emit Promote(msg.sender, target, promotion_fee);\n    }\n\n    function subscribe(address target, uint256 subscription_fee) public payable {\n        require(address(msg.sender).balance >= uint256(subscription_fee), \"Insufficient balance\");\n\n        payable(target).transfer(subscription_fee);\n        emit Subscribe(msg.sender, target, subscription_fee);\n    }\n\n    function start_validation(address initiator, address target, string memory val_type, int256 tau, uint256 limit_len) public payable returns (address[] memory) {\n        delete voting_list;\n        agree_count = 0;\n        disagree_count = 0;\n        \n        address[] memory val_list = verification(tau, limit_len);\n        set_val_list(val_list);\n\n        emit validation_started(initiator, target, val_type);\n        return val_list;\n    }\n}\n",
  "sourcePath": "/common/home/jh2164/BC/Web3SN/contract/contracts/contract.sol",
  "compiler": {
    "name": "solc",
    "version": "0.8.21+commit.d9974bed.Emscripten.clang"
  },
  "schemaVersion": "3.4.16",
  "updatedAt": "2025-01-11T23:42:10.738Z",
  "devdoc": {
    "kind": "dev",
    "methods": {},
    "version": 1
  },
  "userdoc": {
    "kind": "user",
    "methods": {},
    "version": 1
  }
}